:020000040000FA
:100000000A128A11F52FFF1B0D2883137F188317FF
:100010000008840A0319FF0A080000308A00040857
:10002000840A82070034013400340A340034643412
:100030000034E834033410342734543468346134E1
:100040006E346B347334203466346F34723420343D
:1000500056346F3474346534203400342034203402
:1000600041343A3425346434203442343A3425342B
:100070006434203443343A342534643400345934FD
:100080006F3475342034433461346E342034563444
:100090006F347434653420344E346F347734003424
:1000A000203441346334633465347334733420341E
:1000B000643465346E346934653464342034003417
:1000C000203456346F34743469346E3467342034D9
:1000D000533479347334743465346D3420340034DB
:1006640064008001840A0406031900340406332B51
:1006740000300A128A1176230A128A1101300A12F2
:100684008A1176230800F3007308F2007208F4005C
:1006940074088400831300080319552B0130F200F9
:1006A4007208F4074A2B73087402F000F101F01B7E
:1006B400F1030800F000701C632B83120313081667
:1006C400662B831203130812F01C6A2B88166B2BFB
:1006D4008812701D6F2B0817702B0813F01D742BD4
:1006E4008817080088130800F30083120313081105
:1006F40073080A128A115C230A128A1183120313E3
:1007040088150630F2003030F100F10B872BF20B24
:10071400872B0000831203138811080078087904DA
:100724000319BD2BFD01FD0AF91BA42B0130031095
:10073400F80DF90DFF3E031D992B0130FC007C08D8
:10074400FD07962B79087B02031DAA2B78087A02F1
:10075400031CB22B7808FA027908031CFB03FB0282
:1007640001300310F90CF80CFF3E031DB32B0130CC
:10077400FD02031DA42B7B08F9007A08F800080089
:10078400F40074080F39F1007108F2007408F039AC
:10079400F1007108F3008312031308157308F100C4
:1007A40004300310F10CFF3E031DD32B71080A1211
:1007B4008A115C230A128A118312031388150D30DF
:1007C400F100F10BE32B83120313881172080A1250
:1007D4008A115C230A128A118312031388150D30BF
:1007E400F100F10BF32B8312031388110800F501B8
:1007F400F601700871040319302CF701F70AF11B94
:100804000F2C01300310F00DF10DFF3E031D042CDD
:100814000130F4007408F707012C01300310F50DC2
:10082400F60DFF3E031D102C71087302031D1C2CD2
:1008340070087202031C252C7008F2027108031C54
:10084400F303F302751401300310F10CF00CFF3EB6
:10085400031D262C0130F702031D0F2C7608F1002E
:100864007508F0000800FA01FB017A087507F80022
:100874007608F7000318F70AFA1BF7037708F9005C
:10088400790883120313FF00780884000A128A117E
:1008940003200A128A11003A031908007A0875071E
:1008A400F8007608F7000318F70AFA1BF70377082D
:1008B400F900790883120313FF00780884000A12F0
:1008C4008A1103200A128A110A128A11C2230A12F7
:1008D4008A110130FA070318FB0A0030FB07372C92
:1008E400F7007703031D972C74087F3EF500750805
:1008F400FA007A08F50004300310F50CFF3E031DDE
:100904007E2C7508F6007608F8007A080F39F50091
:100914007508F90078080A128A1176230A128A11D6
:1009240079080A128A117623080002307706031D1B
:1009340008007408BF3EF5007508FA007A08F5004F
:1009440004300310F50CFF3E031DA32C7508F600BC
:100954007608F8007A080F39F5007508F900780868
:100964000A128A1176230A128A1179080A128A1144
:1009740076230800F601F11FC62CF009F109F00AEC
:100984000319F10AF601F60AF31FD12CF209F3094F
:10099400F20A0319F30A0130F4007408F606F701A9
:1009A400F801700871040319082DF501F50AF11B0B
:1009B400E72C01300310F00DF10DFF3E031DDC2C7C
:1009C4000130F4007408F507D92C01300310F70D39
:1009D400F80DFF3E031DE82C71087302031DF42C6F
:1009E40070087202031CFD2C7008F2027108031CCB
:1009F400F303F302771401300310F10CF00CFF3E03
:100A0400031DFE2C0130F502031DE72C76080319A3
:100A1400102DF709F809F70A0319F80A7808F10004
:100A24007708F000080000300A128A115C230A12C9
:100A34008A111A30F500F830F400F40B1F2DF50B71
:100A44001F2D000003300A128A1176230A128A111C
:100A54000730F5007D30F400F40B2E2DF50B2E2D10
:100A640003300A128A1176230A128A110F30F50014
:100A74004730F400F40B3C2DF50B3C2D412D033095
:100A84000A128A1176230A128A1102300A128A1172
:100A940076230A128A1102300A128A1176230A1264
:100AA4008A1108300A128A1176230A128A11003038
:100AB4000A128A1176230A128A110C300A128A1138
:100AC40076230A128A1100300A128A1176230A1236
:100AD4008A1106300A128A1176230800831203133E
:100AE400AF002130A7002708AA000130A007FF307B
:100AF400200784000A128A110D200A128A11A70005
:100B04002708B00030080319432E25303006031996
:100B1400972D3008A7002F0884002708831380002E
:100B24000130A7002708AF07772DAB010130A007DC
:100B3400FF30200784000A128A110D200A128A113C
:100B4400B000A700A8012808003A0319AA2D772DA0
:100B54002708003A0319432E643A0319B52D0D3AB8
:100B64000319B52D772D2A08840083130008AD00DE
:100B7400840A0008AE000230A7002708AA07AE1FA7
:100B8400CC2D0330A7002708AB04AD09AE09AD0A8C
:100B94000319AE0AB001B00A3008A7002707013EC6
:100BA40084000A128A110D200A128A11A8000A125E
:100BB4008A110D200A128A11A90029082E02031D88
:100BC400E52D28082D02031CEF2D0130A70027086E
:100BD400B00705303006031DCE2D2B080339031949
:100BE400FE2D2D30A7002F088400270883138000D2
:100BF4000130A7002708AF073008A7002708AC007A
:100C0400FF30A7002708AC072C0A0319772D0A30F8
:100C1400F8000030F9002C08A7002707013E8400E3
:100C24000A128A110D200A128A11F0000A128A117E
:100C34000D200A128A11F1002E08F3002D08F2008B
:100C44000A128A11F9230A128A117108FB0070082A
:100C5400FA000A128A1190230A128A117808303E87
:100C640083120313A8002808B0003008A7002F0837
:100C740084002708831380000130A7002708AF07EA
:100C8400022E2F088400831380010800FF3083168E
:100C940003138600880187018312031386018701E9
:100CA40007140810BF01C001C301C401C501C60176
:100CB400C701C8010A128A1115250A128A11F40102
:100CC400F40A01300A128A1172240A128A114E306F
:100CD400F5008030F6000A128A1135240A128A11AE
:100CE400063083120313B3001330B200AD30B100E9
:100CF400B10B7A2EB20B7A2EB30B7A2E0A128A110A
:100D04003A230A128A111C3083120313B1003108EA
:100D1400A0000030A100A2000030A300A400003015
:100D2400A500A60049300A128A1170250A128A11F8
:100D3400F401F40A01300A128A1172240A128A1187
:100D44004930F5000030F6000A128A1135240A12DF
:100D54008A1183120313061CB32E0130BF00003026
:100D6400C000BC0186180619BB2E8619BB2EBC0117
:100D7400BC0A3C08B100B2013108B4003208B50025
:100D8400BD01861C061DCA2E8619CA2EBD01BD0AC8
:100D94003D08B100B2013108B6003208B700BE0107
:100DA400861C0619D92E861DD92EBE01BE0A3E0800
:100DB400B100B2013108B8003208B9003F0840045C
:100DC4000319E72F8814F401F40A02300A128A1175
:100DD40072240A128A112D30F5008030F6000A12AE
:100DE4008A1135240A128A11831203133408350434
:100DF4000319282F081487140130C3070318C40AE1
:100E04000030C407BF01C001F401F40A02300A1221
:100E14008A1172240A128A110B30F5008030F60010
:100E24000A128A1135240A128A1103308312031319
:100E3400B3008A30B2005530B100B10B1F2FB20B92
:100E44001F2FB30B1F2F8312031387103608370489
:100E54000319582F081407150130C5070318C60ACB
:100E64000030C607BF01C001F401F40A02300A12BF
:100E74008A1172240A128A110B30F5008030F600B0
:100E84000A128A1135240A128A11033083120313B9
:100E9400B3008A30B2005530B100B10B4F2FB20B02
:100EA4004F2FB30B4F2F8312031307113808390444
:100EB4000319882F081487150130C7070318C80AB7
:100EC4000030C807BF01C001F401F40A02300A125D
:100ED4008A1172240A128A110B30F5008030F60050
:100EE4000A128A1135240A128A1103308312031359
:100EF400B3008A30B2005530B100B10B7F2FB20B72
:100F04007F2FB30B7F2F8312031387111E30B10081
:100F14003108A0004408A2004308A1004608A40028
:100F24004508A3004808A6004708A50049300A124E
:100F34008A1170250A128A1149300A128A1145232E
:100F44000A128A11710883120313C2007008C100C7
:100F54001030B10041083102B20042090318013EC9
:100F6400B3003308803AFF0080307F02031DBC2F9A
:100F7400013032020318C42F013083120313BA0064
:100F84000030E12F0230F0000030F1001030831205
:100F94000313B10041083102F20042090318013E73
:100FA400F3000A128A11BC240A128A117008013E45
:100FB40083120313BA0071080318013E003EBB00FC
:100FC4003A08B1003108F4009C2E08108810F4018E
:100FD400F40A02300A128A1172240A128A113E306B
:100FE400F5008030A52E83134930840059300A124D
:0C0FF4008A11322383010A128A11482E50
:02400E00393D3A
:00000001FF
